{
  "contractName": "MMRProof",
  "abi": [
    {
      "inputs": [],
      "payable": false,
      "stateMutability": "nonpayable",
      "type": "constructor"
    },
    {
      "constant": false,
      "inputs": [
        {
          "internalType": "bytes32",
          "name": "_hashToCheck",
          "type": "bytes32"
        },
        {
          "internalType": "uint256",
          "name": "_hashIndex",
          "type": "uint256"
        },
        {
          "internalType": "bytes32[]",
          "name": "_branch",
          "type": "bytes32[]"
        }
      ],
      "name": "safeCheck",
      "outputs": [
        {
          "internalType": "bytes",
          "name": "",
          "type": "bytes"
        }
      ],
      "payable": false,
      "stateMutability": "nonpayable",
      "type": "function"
    },
    {
      "constant": false,
      "inputs": [
        {
          "internalType": "string",
          "name": "testString",
          "type": "string"
        }
      ],
      "name": "testMMR",
      "outputs": [
        {
          "internalType": "bytes",
          "name": "",
          "type": "bytes"
        }
      ],
      "payable": false,
      "stateMutability": "nonpayable",
      "type": "function"
    }
  ],
  "bytecode": "0x60806040526040518060400160405280601081526020017f566572757344656661756c7448617368000000000000000000000000000000008152506002908051906020019062000051929190620000d2565b503480156200005f57600080fd5b506040516200006e9062000159565b604051809103906000f0801580156200008b573d6000803e3d6000fd5b50600160006101000a81548173ffffffffffffffffffffffffffffffffffffffff021916908373ffffffffffffffffffffffffffffffffffffffff1602179055506200018f565b828054600181600116156101000203166002900490600052602060002090601f016020900481019282601f106200011557805160ff191683800117855562000146565b8280016001018555821562000146579182015b828111156200014557825182559160200191906001019062000128565b5b50905062000155919062000167565b5090565b612f05806200104d83390190565b6200018c91905b80821115620001885760008160009055506001016200016e565b5090565b90565b610eae806200019f6000396000f3fe608060405234801561001057600080fd5b50600436106100365760003560e01c80630fabf8cf1461003b57806359847f681461006b575b600080fd5b6100556004803603610050919081019061085f565b61009b565b6040516100629190610bb9565b60405180910390f35b610085600480360361008091908101906107f8565b61024a565b6040516100929190610bb9565b60405180910390f35b60606100a561057c565b606083905060405180602001604052806000815250600290805190602001906100cf92919061059f565b50600160009054906101000a900473ffffffffffffffffffffffffffffffffffffffff1673ffffffffffffffffffffffffffffffffffffffff1663d299dac0826002604080518463ffffffff1660e01b815260040161013093929190610bdb565b61010060405180830381600087803b15801561014b57600080fd5b505af115801561015f573d6000803e3d6000fd5b505050506040513d601f19601f8201168201806040525061018391908101906107ce565b915060608260006008811061019457fe5b6020020151836001600881106101a657fe5b6020020151846002600881106101b857fe5b6020020151856003600881106101ca57fe5b6020020151866004600881106101dc57fe5b6020020151876005600881106101ee57fe5b60200201518860066008811061020057fe5b60200201518960076008811061021257fe5b602002015160405160200161022e989796959493929190610b27565b6040516020818303038152906040529050809350505050919050565b60606000831015610290576040517f08c379a000000000000000000000000000000000000000000000000000000000815260040161028790610c60565b60405180910390fd5b60008251116102d4576040517f08c379a00000000000000000000000000000000000000000000000000000000081526004016102cb90610c20565b60405180910390fd5b60008251905060606102e461057c565b6060876040516020016102f79190610abc565b604051602081830303815290604052925060008090505b8481101561056d5760006001891611156103b4578887828151811061032f57fe5b60200260200101511415610378576040517f08c379a000000000000000000000000000000000000000000000000000000000815260040161036f90610c40565b60405180910390fd5b86818151811061038457fe5b60200260200101518460405160200161039e929190610ad7565b60405160208183030381529060405291506103ec565b838782815181106103c157fe5b60200260200101516040516020016103da929190610aff565b60405160208183030381529060405291505b600160009054906101000a900473ffffffffffffffffffffffffffffffffffffffff1673ffffffffffffffffffffffffffffffffffffffff1663d299dac0836002604080518463ffffffff1660e01b815260040161044c93929190610bdb565b61010060405180830381600087803b15801561046757600080fd5b505af115801561047b573d6000803e3d6000fd5b505050506040513d601f19601f8201168201806040525061049f91908101906107ce565b9250826000600881106104ae57fe5b6020020151836001600881106104c057fe5b6020020151846002600881106104d257fe5b6020020151856003600881106104e457fe5b6020020151866004600881106104f657fe5b60200201518760056008811061050857fe5b60200201518860066008811061051a57fe5b60200201518960076008811061052c57fe5b6020020151604051602001610548989796959493929190610b27565b6040516020818303038152906040529350600188901c9750808060010191505061030e565b50829450505050509392505050565b604051806101000160405280600890602082028038833980820191505090505090565b828054600181600116156101000203166002900490600052602060002090601f016020900481019282601f106105e057805160ff191683800117855561060e565b8280016001018555821561060e579182015b8281111561060d5782518255916020019190600101906105f2565b5b50905061061b919061061f565b5090565b61064191905b8082111561063d576000816000905550600101610625565b5090565b90565b600082601f83011261065557600080fd5b813561066861066382610cad565b610c80565b9150818183526020840193506020810190508385602084028201111561068d57600080fd5b60005b838110156106bd57816106a3888261073b565b845260208401935060208301925050600181019050610690565b5050505092915050565b600082601f8301126106d857600080fd5b60086106eb6106e682610cd5565b610c80565b9150818385602084028201111561070157600080fd5b60005b83811015610731578161071788826107b9565b845260208401935060208301925050600181019050610704565b5050505092915050565b60008135905061074a81610e26565b92915050565b600082601f83011261076157600080fd5b813561077461076f82610cf7565b610c80565b9150808252602083016020830185838301111561079057600080fd5b61079b838284610daa565b50505092915050565b6000813590506107b381610e3d565b92915050565b6000815190506107c881610e54565b92915050565b600061010082840312156107e157600080fd5b60006107ef848285016106c7565b91505092915050565b60008060006060848603121561080d57600080fd5b600061081b8682870161073b565b935050602061082c868287016107a4565b925050604084013567ffffffffffffffff81111561084957600080fd5b61085586828701610644565b9150509250925092565b60006020828403121561087157600080fd5b600082013567ffffffffffffffff81111561088b57600080fd5b61089784828501610750565b91505092915050565b6108b16108ac82610d70565b610dec565b82525050565b60006108c282610d38565b6108cc8185610d43565b93506108dc818560208601610db9565b6108e581610e08565b840191505092915050565b60006108fb82610d38565b6109058185610d54565b9350610915818560208601610db9565b80840191505092915050565b60008154600181166000811461093e5760018114610964576109a8565b607f600283041661094f8187610d43565b955060ff1983168652602086019350506109a8565b600282046109728187610d43565b955061097d85610d23565b60005b8281101561099f57815481890152600182019150602081019050610980565b80880195505050505b505092915050565b6109b981610d98565b82525050565b60006109cc601c83610d5f565b91507f4272616e6368206d757374206265206c6f6e676572207468616e2030000000006000830152602082019050919050565b6000610a0c603183610d5f565b91507f56616c75652063616e20626520657175616c20746f206e6f646520627574206e60008301527f65766572206f6e207468652072696768740000000000000000000000000000006020830152604082019050919050565b6000610a72601b83610d5f565b91507f496e6465782063616e6e6f74206265206c657373207468616e203000000000006000830152602082019050919050565b610ab6610ab182610d84565b610df6565b82525050565b6000610ac882846108a0565b60208201915081905092915050565b6000610ae382856108a0565b602082019150610af382846108f0565b91508190509392505050565b6000610b0b82856108f0565b9150610b1782846108a0565b6020820191508190509392505050565b6000610b33828b610aa5565b600882019150610b43828a610aa5565b600882019150610b538289610aa5565b600882019150610b638288610aa5565b600882019150610b738287610aa5565b600882019150610b838286610aa5565b600882019150610b938285610aa5565b600882019150610ba38284610aa5565b6008820191508190509998505050505050505050565b60006020820190508181036000830152610bd381846108b7565b905092915050565b60006060820190508181036000830152610bf581866108b7565b90508181036020830152610c098185610921565b9050610c1860408301846109b0565b949350505050565b60006020820190508181036000830152610c39816109bf565b9050919050565b60006020820190508181036000830152610c59816109ff565b9050919050565b60006020820190508181036000830152610c7981610a65565b9050919050565b6000604051905081810181811067ffffffffffffffff82111715610ca357600080fd5b8060405250919050565b600067ffffffffffffffff821115610cc457600080fd5b602082029050602081019050919050565b600067ffffffffffffffff821115610cec57600080fd5b602082029050919050565b600067ffffffffffffffff821115610d0e57600080fd5b601f19601f8301169050602081019050919050565b60008190508160005260206000209050919050565b600081519050919050565b600082825260208201905092915050565b600081905092915050565b600082825260208201905092915050565b6000819050919050565b6000819050919050565b600067ffffffffffffffff82169050919050565b6000610da382610d84565b9050919050565b82818337600083830152505050565b60005b83811015610dd7578082015181840152602081019050610dbc565b83811115610de6576000848401525b50505050565b6000819050919050565b6000610e0182610e19565b9050919050565b6000601f19601f8301169050919050565b60008160c01b9050919050565b610e2f81610d70565b8114610e3a57600080fd5b50565b610e4681610d7a565b8114610e5157600080fd5b50565b610e5d81610d84565b8114610e6857600080fd5b5056fea365627a7a72315820db5deee2b6ee4766fe139790ed7e8559984391fe9788bbaf5866ab62d10529036c6578706572696d656e74616cf564736f6c634300051000406080604052604051806101000160405280676a09e667f3bcc90867ffffffffffffffff16815260200167bb67ae8584caa73b67ffffffffffffffff168152602001673c6ef372fe94f82b67ffffffffffffffff16815260200167a54ff53a5f1d36f167ffffffffffffffff16815260200167510e527fade682d167ffffffffffffffff168152602001679b05688c2b3e6c1f67ffffffffffffffff168152602001671f83d9abfb41bd6b67ffffffffffffffff168152602001675be0cd19137e217967ffffffffffffffff168152506000906008620000e0929190620000f5565b50348015620000ee57600080fd5b50620001e5565b826008600301600490048101928215620001985791602002820160005b838211156200016057835183826101000a81548167ffffffffffffffff021916908367ffffffffffffffff160217905550926020019260080160208160070104928301926001030262000112565b8015620001965782816101000a81549067ffffffffffffffff021916905560080160208160070104928301926001030262000160565b505b509050620001a79190620001ab565b5090565b620001e291905b80821115620001de57600081816101000a81549067ffffffffffffffff021916905550600101620001b2565b5090565b90565b612d1080620001f56000396000f3fe608060405234801561001057600080fd5b50600436106100935760003560e01c8063d299dac011610066578063d299dac014610529578063df459019146106cb578063f23525ec1461076e578063fa2acd87146107c4578063fb72d24e1461087b57610093565b80631e09242314610098578063217311ac146103685780637ac0b1e3146103c8578063bf187478146104bf575b600080fd5b61032a600480360360a08110156100ae57600080fd5b81019080803590602001906401000000008111156100cb57600080fd5b8201836020820111156100dd57600080fd5b803590602001918460018302840111640100000000831117156100ff57600080fd5b91908080601f016020809104026020016040519081016040528093929190818152602001838380828437600081840152601f19601f8201169050808301925050505050505091929192908035906020019064010000000081111561016257600080fd5b82018360208201111561017457600080fd5b8035906020019184600183028401116401000000008311171561019657600080fd5b91908080601f016020809104026020016040519081016040528093929190818152602001838380828437600081840152601f19601f820116905080830192505050505050509192919290803590602001906401000000008111156101f957600080fd5b82018360208201111561020b57600080fd5b8035906020019184600183028401116401000000008311171561022d57600080fd5b91908080601f016020809104026020016040519081016040528093929190818152602001838380828437600081840152601f19601f8201169050808301925050505050505091929192908035906020019064010000000081111561029057600080fd5b8201836020820111156102a257600080fd5b803590602001918460018302840111640100000000831117156102c457600080fd5b91908080601f016020809104026020016040519081016040528093929190818152602001838380828437600081840152601f19601f820116905080830192505050505050509192919290803567ffffffffffffffff1690602001909291905050506108e5565b6040518082600860200280838360005b8381101561035557808201518184015260208101905061033a565b5050505090500191505060405180910390f35b61039e6004803603602081101561037e57600080fd5b81019080803567ffffffffffffffff16906020019092919050505061099b565b604051808267ffffffffffffffff1667ffffffffffffffff16815260200191505060405180910390f35b610481600480360360208110156103de57600080fd5b81019080803590602001906401000000008111156103fb57600080fd5b82018360208201111561040d57600080fd5b8035906020019184600183028401116401000000008311171561042f57600080fd5b91908080601f016020809104026020016040519081016040528093929190818152602001838380828437600081840152601f19601f820116905080830192505050505050509192919290505050610a8b565b6040518082600260200280838360005b838110156104ac578082015181840152602081019050610491565b5050505090500191505060405180910390f35b6104ff600480360360408110156104d557600080fd5b81019080803567ffffffffffffffff16906020019092919080359060200190929190505050610bcb565b604051808267ffffffffffffffff1667ffffffffffffffff16815260200191505060405180910390f35b61068d6004803603606081101561053f57600080fd5b810190808035906020019064010000000081111561055c57600080fd5b82018360208201111561056e57600080fd5b8035906020019184600183028401116401000000008311171561059057600080fd5b91908080601f016020809104026020016040519081016040528093929190818152602001838380828437600081840152601f19601f820116905080830192505050505050509192919290803590602001906401000000008111156105f357600080fd5b82018360208201111561060557600080fd5b8035906020019184600183028401116401000000008311171561062757600080fd5b91908080601f016020809104026020016040519081016040528093929190818152602001838380828437600081840152601f19601f820116905080830192505050505050509192919290803567ffffffffffffffff169060200190929190505050610bf7565b6040518082600860200280838360005b838110156106b857808201518184015260208101905061069d565b5050505090500191505060405180910390f35b61073060048036036101008110156106e257600080fd5b810190808061010001906008806020026040519081016040528092919082600860200280828437600081840152601f19601f8201169050808301925050505050509192919290505050610c33565b6040518082600260200280838360005b8381101561075b578082015181840152602081019050610740565b5050505090500191505060405180910390f35b61079a6004803603602081101561078457600080fd5b8101908080359060200190929190505050610cd7565b604051808267ffffffffffffffff1667ffffffffffffffff16815260200191505060405180910390f35b61087960048036036102c08110156107db57600080fd5b810190808061020001906010806020026040519081016040528092919082601060200280828437600081840152601f19601f820116905080830192505050505050919291929080359060200190929190803590602001909291908035906020019092919080359060200190929190803567ffffffffffffffff169060200190929190803567ffffffffffffffff169060200190929190505050610d08565b005b6108bb6004803603604081101561089157600080fd5b81019080803567ffffffffffffffff16906020019092919080359060200190929190505050610edc565b604051808267ffffffffffffffff1667ffffffffffffffff16815260200191505060405180910390f35b6108ed612b65565b6108f5612b88565b6108fd612b65565b61091a82858961090c8a610a8b565b6109158a610a8b565b610efd565b610924828961120b565b61092e828261131a565b7fde1a9fb355752f7765552010c12ee02e62eaa7b0502f3088e6b5398ce8686a38816040518082600860200280838360005b8381101561097b578082015181840152602081019050610960565b5050505090500191505060405180910390a1809250505095945050505050565b600067010000000000000060ff8316026501000000000061ff00841602630100000062ff000085160261010063ff00000086160261010067ffffffffffffffff1664ff00000000871667ffffffffffffffff16816109f557fe5b04630100000067ffffffffffffffff1665ff0000000000881667ffffffffffffffff1681610a1f57fe5b046501000000000067ffffffffffffffff1666ff000000000000891667ffffffffffffffff1681610a4c57fe5b0467010000000000000067ffffffffffffffff1667ff000000000000008a1667ffffffffffffffff1681610a7c57fe5b04181818181818189050919050565b610a93612bdf565b60008090505b8251811015610b3957610adb838281518110610ab157fe5b602001015160f81c60f81b60f81c60ff16600160088481610ace57fe5b0601600802604003610bcb565b8260088381610ae657fe5b0460028110610af157fe5b6020020151188260088381610b0257fe5b0460028110610b0d57fe5b602002019067ffffffffffffffff16908167ffffffffffffffff16815250508080600101915050610a99565b50610b5481600060028110610b4a57fe5b602002015161099b565b81600060028110610b6157fe5b602002019067ffffffffffffffff16908167ffffffffffffffff1681525050610b9a81600160028110610b9057fe5b602002015161099b565b81600160028110610ba757fe5b602002019067ffffffffffffffff16908167ffffffffffffffff1681525050919050565b6000680100000000000000008260020a8467ffffffffffffffff160281610bee57fe5b06905092915050565b610bff612b65565b610c2a84846040518060200160405280600081525060405180602001604052806000815250866108e5565b90509392505050565b610c3b612c01565b610c43612c01565b60008090505b6008811015610ccd5760048181610c5c57fe5b0660030360400260020a848260088110610c7257fe5b602002015167ffffffffffffffff160260001b8260048381610c9057fe5b0460028110610c9b57fe5b6020020151188260048381610cac57fe5b0460028110610cb757fe5b6020020181815250508080600101915050610c49565b5080915050919050565b60008160088110610ce457fe5b60049182820401919006600802915054906101000a900467ffffffffffffffff1681565b6000878760108110610d1657fe5b602002015190506000888760108110610d2b57fe5b602002015190506000898760108110610d4057fe5b6020020151905060008a8760108110610d5557fe5b60200201519050680100000000000000008684860108935068010000000000000000640100000000858318096401000000008583180418905068010000000000000000818308915068010000000000000000650100000000008385180963010000008385180418925068010000000000000000858486010893506801000000000000000066010000000000008583180962010000858318041890506801000000000000000081830891506801000000000000000060028385180967800000000000000083851804189250838b8b60108110610e2c57fe5b602002019067ffffffffffffffff16908167ffffffffffffffff1681525050828b8a60108110610e5857fe5b602002019067ffffffffffffffff16908167ffffffffffffffff1681525050818b8960108110610e8457fe5b602002019067ffffffffffffffff16908167ffffffffffffffff1681525050808b8860108110610eb057fe5b602002019067ffffffffffffffff16908167ffffffffffffffff16815250505050505050505050505050565b60008160020a8367ffffffffffffffff1681610ef457fe5b04905092915050565b60008467ffffffffffffffff161480610f20575060408467ffffffffffffffff16115b80610f2c575060408351115b15610f82576040517f08c379a000000000000000000000000000000000000000000000000000000000815260040180806020018281038252602e815260200180612cae602e913960400191505060405180910390fd5b60008090505b6008811015610ffa5760008160088110610f9e57fe5b600491828204019190066008029054906101000a900467ffffffffffffffff1686602001518260088110610fce57fe5b602002019067ffffffffffffffff16908167ffffffffffffffff16815250508080600101915050610f88565b508361100884516008610bcb565b6301010000876020015160006008811061101e57fe5b6020020151181818856020015160006008811061103757fe5b602002019067ffffffffffffffff16908167ffffffffffffffff16815250508160006002811061106357fe5b6020020151856020015160046008811061107957fe5b602002015118856020015160046008811061109057fe5b602002019067ffffffffffffffff16908167ffffffffffffffff1681525050816001600281106110bc57fe5b602002015185602001516005600881106110d257fe5b60200201511885602001516005600881106110e957fe5b602002019067ffffffffffffffff16908167ffffffffffffffff16815250508060006002811061111557fe5b6020020151856020015160066008811061112b57fe5b602002015118856020015160066008811061114257fe5b602002019067ffffffffffffffff16908167ffffffffffffffff16815250508060016002811061116e57fe5b6020020151856020015160076008811061118457fe5b602002015118856020015160076008811061119b57fe5b602002019067ffffffffffffffff16908167ffffffffffffffff16815250508367ffffffffffffffff16856080018181525050600083511115611204576111e2858461120b565b6080856060019067ffffffffffffffff16908167ffffffffffffffff16815250505b5050505050565b60008090505b8151811015611315576080836060015167ffffffffffffffff1614156112a257826060015167ffffffffffffffff1683604001818151019150906fffffffffffffffffffffffffffffffff1690816fffffffffffffffffffffffffffffffff168152505061128083600061146e565b6000836060019067ffffffffffffffff16908167ffffffffffffffff16815250505b600083606001805180919060010167ffffffffffffffff1667ffffffffffffffff1681525067ffffffffffffffff1690506112db612c23565b8460000151905060008484815181106112f057fe5b602001015160f81c60f81b60f81c905080838301535050508080600101915050611211565b505050565b816060015167ffffffffffffffff1682604001818151019150906fffffffffffffffffffffffffffffffff1690816fffffffffffffffffffffffffffffffff168152505061136982600161146e565b60008090505b600883608001518161137d57fe5b048110156113da576113a28360200151826008811061139857fe5b602002015161099b565b8282600881106113ae57fe5b602002019067ffffffffffffffff16908167ffffffffffffffff1681525050808060010191505061136f565b5060408260800151101561146a576114306114168360200151600885608001518161140157fe5b046008811061140c57fe5b602002015161099b565b600884608001518161142457fe5b06600802604003610edc565b81600884608001518161143f57fe5b046008811061144a57fe5b602002019067ffffffffffffffff16908167ffffffffffffffff16815250505b5050565b611476612c45565b61147e612c45565b60008090505b6008811015611535578460200151816008811061149d57fe5b60200201518382601081106114ae57fe5b602002019067ffffffffffffffff16908167ffffffffffffffff1681525050600081600881106114da57fe5b600491828204019190066008029054906101000a900467ffffffffffffffff1683600883016010811061150957fe5b602002019067ffffffffffffffff16908167ffffffffffffffff16815250508080600101915050611484565b506801000000000000000084604001516fffffffffffffffffffffffffffffffff168161155e57fe5b0682600c6010811061156c57fe5b60200201511882600c6010811061157f57fe5b602002019067ffffffffffffffff16908167ffffffffffffffff16815250506801000000000000000084604001516fffffffffffffffffffffffffffffffff16816115c657fe5b0482600d601081106115d457fe5b60200201511882600d601081106115e757fe5b602002019067ffffffffffffffff16908167ffffffffffffffff1681525050821561164c5781600e6010811061161957fe5b60200201511982600e6010811061162c57fe5b602002019067ffffffffffffffff16908167ffffffffffffffff16815250505b60008060008090505b60108110156116f65760006004828161166a57fe5b06905060009350600081141561169c5787600001516004838161168957fe5b046004811061169457fe5b602002015192505b67ffffffffffffffff8160030360400260020a84041693506116bd8461099b565b8583601081106116c957fe5b602002019067ffffffffffffffff16908167ffffffffffffffff1681525050508080600101915050611655565b5061172c84600060046008600c8860006010811061171057fe5b60200201518960016010811061172257fe5b6020020151610d08565b61176184600160056009600d8860026010811061174557fe5b60200201518960036010811061175757fe5b6020020151610d08565b6117968460026006600a600e8860046010811061177a57fe5b60200201518960056010811061178c57fe5b6020020151610d08565b6117cb8460036007600b600f886006601081106117af57fe5b6020020151896007601081106117c157fe5b6020020151610d08565b6118008460006005600a600f886008601081106117e457fe5b6020020151896009601081106117f657fe5b6020020151610d08565b6118358460016006600b600c88600a6010811061181957fe5b602002015189600b6010811061182b57fe5b6020020151610d08565b61186a84600260076008600d88600c6010811061184e57fe5b602002015189600d6010811061186057fe5b6020020151610d08565b61189f84600360046009600e88600e6010811061188357fe5b602002015189600f6010811061189557fe5b6020020151610d08565b6118d484600060046008600c88600e601081106118b857fe5b602002015189600a601081106118ca57fe5b6020020151610d08565b61190984600160056009600d886004601081106118ed57fe5b6020020151896008601081106118ff57fe5b6020020151610d08565b61193e8460026006600a600e8860096010811061192257fe5b602002015189600f6010811061193457fe5b6020020151610d08565b6119738460036007600b600f88600d6010811061195757fe5b60200201518960066010811061196957fe5b6020020151610d08565b6119a88460006005600a600f8860016010811061198c57fe5b602002015189600c6010811061199e57fe5b6020020151610d08565b6119dd8460016006600b600c886000601081106119c157fe5b6020020151896002601081106119d357fe5b6020020151610d08565b611a1284600260076008600d88600b601081106119f657fe5b602002015189600760108110611a0857fe5b6020020151610d08565b611a4784600360046009600e88600560108110611a2b57fe5b602002015189600360108110611a3d57fe5b6020020151610d08565b611a7c84600060046008600c88600b60108110611a6057fe5b602002015189600860108110611a7257fe5b6020020151610d08565b611ab184600160056009600d88600c60108110611a9557fe5b602002015189600060108110611aa757fe5b6020020151610d08565b611ae68460026006600a600e88600560108110611aca57fe5b602002015189600260108110611adc57fe5b6020020151610d08565b611b1b8460036007600b600f88600f60108110611aff57fe5b602002015189600d60108110611b1157fe5b6020020151610d08565b611b508460006005600a600f88600a60108110611b3457fe5b602002015189600e60108110611b4657fe5b6020020151610d08565b611b858460016006600b600c88600360108110611b6957fe5b602002015189600660108110611b7b57fe5b6020020151610d08565b611bba84600260076008600d88600760108110611b9e57fe5b602002015189600160108110611bb057fe5b6020020151610d08565b611bef84600360046009600e88600960108110611bd357fe5b602002015189600460108110611be557fe5b6020020151610d08565b611c2484600060046008600c88600760108110611c0857fe5b602002015189600960108110611c1a57fe5b6020020151610d08565b611c5984600160056009600d88600360108110611c3d57fe5b602002015189600160108110611c4f57fe5b6020020151610d08565b611c8e8460026006600a600e88600d60108110611c7257fe5b602002015189600c60108110611c8457fe5b6020020151610d08565b611cc38460036007600b600f88600b60108110611ca757fe5b602002015189600e60108110611cb957fe5b6020020151610d08565b611cf88460006005600a600f88600260108110611cdc57fe5b602002015189600660108110611cee57fe5b6020020151610d08565b611d2d8460016006600b600c88600560108110611d1157fe5b602002015189600a60108110611d2357fe5b6020020151610d08565b611d6284600260076008600d88600460108110611d4657fe5b602002015189600060108110611d5857fe5b6020020151610d08565b611d9784600360046009600e88600f60108110611d7b57fe5b602002015189600860108110611d8d57fe5b6020020151610d08565b611dcc84600060046008600c88600960108110611db057fe5b602002015189600060108110611dc257fe5b6020020151610d08565b611e0184600160056009600d88600560108110611de557fe5b602002015189600760108110611df757fe5b6020020151610d08565b611e368460026006600a600e88600260108110611e1a57fe5b602002015189600460108110611e2c57fe5b6020020151610d08565b611e6b8460036007600b600f88600a60108110611e4f57fe5b602002015189600f60108110611e6157fe5b6020020151610d08565b611ea08460006005600a600f88600e60108110611e8457fe5b602002015189600160108110611e9657fe5b6020020151610d08565b611ed58460016006600b600c88600b60108110611eb957fe5b602002015189600c60108110611ecb57fe5b6020020151610d08565b611f0a84600260076008600d88600660108110611eee57fe5b602002015189600860108110611f0057fe5b6020020151610d08565b611f3f84600360046009600e88600360108110611f2357fe5b602002015189600d60108110611f3557fe5b6020020151610d08565b611f7484600060046008600c88600260108110611f5857fe5b602002015189600c60108110611f6a57fe5b6020020151610d08565b611fa984600160056009600d88600660108110611f8d57fe5b602002015189600a60108110611f9f57fe5b6020020151610d08565b611fde8460026006600a600e88600060108110611fc257fe5b602002015189600b60108110611fd457fe5b6020020151610d08565b6120138460036007600b600f88600860108110611ff757fe5b60200201518960036010811061200957fe5b6020020151610d08565b6120488460006005600a600f8860046010811061202c57fe5b602002015189600d6010811061203e57fe5b6020020151610d08565b61207d8460016006600b600c8860076010811061206157fe5b60200201518960056010811061207357fe5b6020020151610d08565b6120b284600260076008600d88600f6010811061209657fe5b602002015189600e601081106120a857fe5b6020020151610d08565b6120e784600360046009600e886001601081106120cb57fe5b6020020151896009601081106120dd57fe5b6020020151610d08565b61211c84600060046008600c88600c6010811061210057fe5b60200201518960056010811061211257fe5b6020020151610d08565b61215184600160056009600d8860016010811061213557fe5b602002015189600f6010811061214757fe5b6020020151610d08565b6121868460026006600a600e88600e6010811061216a57fe5b602002015189600d6010811061217c57fe5b6020020151610d08565b6121bb8460036007600b600f8860046010811061219f57fe5b602002015189600a601081106121b157fe5b6020020151610d08565b6121f08460006005600a600f886000601081106121d457fe5b6020020151896007601081106121e657fe5b6020020151610d08565b6122258460016006600b600c8860066010811061220957fe5b60200201518960036010811061221b57fe5b6020020151610d08565b61225a84600260076008600d8860096010811061223e57fe5b60200201518960026010811061225057fe5b6020020151610d08565b61228f84600360046009600e8860086010811061227357fe5b602002015189600b6010811061228557fe5b6020020151610d08565b6122c484600060046008600c88600d601081106122a857fe5b602002015189600b601081106122ba57fe5b6020020151610d08565b6122f984600160056009600d886007601081106122dd57fe5b602002015189600e601081106122ef57fe5b6020020151610d08565b61232e8460026006600a600e88600c6010811061231257fe5b60200201518960016010811061232457fe5b6020020151610d08565b6123638460036007600b600f8860036010811061234757fe5b60200201518960096010811061235957fe5b6020020151610d08565b6123988460006005600a600f8860056010811061237c57fe5b60200201518960006010811061238e57fe5b6020020151610d08565b6123cd8460016006600b600c88600f601081106123b157fe5b6020020151896004601081106123c357fe5b6020020151610d08565b61240284600260076008600d886008601081106123e657fe5b6020020151896006601081106123f857fe5b6020020151610d08565b61243784600360046009600e8860026010811061241b57fe5b602002015189600a6010811061242d57fe5b6020020151610d08565b61246c84600060046008600c8860066010811061245057fe5b602002015189600f6010811061246257fe5b6020020151610d08565b6124a184600160056009600d88600e6010811061248557fe5b60200201518960096010811061249757fe5b6020020151610d08565b6124d68460026006600a600e88600b601081106124ba57fe5b6020020151896003601081106124cc57fe5b6020020151610d08565b61250b8460036007600b600f886000601081106124ef57fe5b60200201518960086010811061250157fe5b6020020151610d08565b6125408460006005600a600f88600c6010811061252457fe5b60200201518960026010811061253657fe5b6020020151610d08565b6125758460016006600b600c88600d6010811061255957fe5b60200201518960076010811061256b57fe5b6020020151610d08565b6125aa84600260076008600d8860016010811061258e57fe5b6020020151896004601081106125a057fe5b6020020151610d08565b6125df84600360046009600e88600a601081106125c357fe5b6020020151896005601081106125d557fe5b6020020151610d08565b61261484600060046008600c88600a601081106125f857fe5b60200201518960026010811061260a57fe5b6020020151610d08565b61264984600160056009600d8860086010811061262d57fe5b60200201518960046010811061263f57fe5b6020020151610d08565b61267e8460026006600a600e8860076010811061266257fe5b60200201518960066010811061267457fe5b6020020151610d08565b6126b38460036007600b600f8860016010811061269757fe5b6020020151896005601081106126a957fe5b6020020151610d08565b6126e88460006005600a600f88600f601081106126cc57fe5b602002015189600b601081106126de57fe5b6020020151610d08565b61271d8460016006600b600c8860096010811061270157fe5b602002015189600e6010811061271357fe5b6020020151610d08565b61275284600260076008600d8860036010811061273657fe5b602002015189600c6010811061274857fe5b6020020151610d08565b61278784600360046009600e88600d6010811061276b57fe5b60200201518960006010811061277d57fe5b6020020151610d08565b6127bc84600060046008600c886000601081106127a057fe5b6020020151896001601081106127b257fe5b6020020151610d08565b6127f184600160056009600d886002601081106127d557fe5b6020020151896003601081106127e757fe5b6020020151610d08565b6128268460026006600a600e8860046010811061280a57fe5b60200201518960056010811061281c57fe5b6020020151610d08565b61285b8460036007600b600f8860066010811061283f57fe5b60200201518960076010811061285157fe5b6020020151610d08565b6128908460006005600a600f8860086010811061287457fe5b60200201518960096010811061288657fe5b6020020151610d08565b6128c58460016006600b600c88600a601081106128a957fe5b602002015189600b601081106128bb57fe5b6020020151610d08565b6128fa84600260076008600d88600c601081106128de57fe5b602002015189600d601081106128f057fe5b6020020151610d08565b61292f84600360046009600e88600e6010811061291357fe5b602002015189600f6010811061292557fe5b6020020151610d08565b61296484600060046008600c88600e6010811061294857fe5b602002015189600a6010811061295a57fe5b6020020151610d08565b61299984600160056009600d8860046010811061297d57fe5b60200201518960086010811061298f57fe5b6020020151610d08565b6129ce8460026006600a600e886009601081106129b257fe5b602002015189600f601081106129c457fe5b6020020151610d08565b612a038460036007600b600f88600d601081106129e757fe5b6020020151896006601081106129f957fe5b6020020151610d08565b612a388460006005600a600f88600160108110612a1c57fe5b602002015189600c60108110612a2e57fe5b6020020151610d08565b612a6d8460016006600b600c88600060108110612a5157fe5b602002015189600260108110612a6357fe5b6020020151610d08565b612aa284600260076008600d88600b60108110612a8657fe5b602002015189600760108110612a9857fe5b6020020151610d08565b612ad784600360046009600e88600560108110612abb57fe5b602002015189600360108110612acd57fe5b6020020151610d08565b60008090505b6008811015612b5c57846008820160108110612af557fe5b6020020151858260108110612b0657fe5b602002015188602001518360088110612b1b57fe5b6020020151181887602001518260088110612b3257fe5b602002019067ffffffffffffffff16908167ffffffffffffffff1681525050806001019050612add565b50505050505050565b604051806101000160405280600890602082028038833980820191505090505090565b6040518060a00160405280612b9b612c68565b8152602001612ba8612c8a565b815260200160006fffffffffffffffffffffffffffffffff168152602001600067ffffffffffffffff168152602001600081525090565b6040518060400160405280600290602082028038833980820191505090505090565b6040518060400160405280600290602082028038833980820191505090505090565b6040518060800160405280600490602082028038833980820191505090505090565b604051806102000160405280601090602082028038833980820191505090505090565b6040518060800160405280600490602082028038833980820191505090505090565b60405180610100016040528060089060208202803883398082019150509050509056fe4f75746c656e206d7573742062652067726561746572207468616e203020616e64206c657373207468616e203634a265627a7a72315820bb4b829738f2db4ffca3afdb44dd6364dccbdaca4d6a4bb07428e7bdb8d848d964736f6c63430005100032",
  "source": "// SPDX-License-Identifier: MIT\n// Bridge between ethereum and verus\n\npragma solidity >=0.5.16 <0.7.1;\nimport \"./BLAKE2B/BLAKE2b.sol\";\npragma experimental ABIEncoderV2;\n\ncontract MMRProof{\n\n    uint256 mmrRoot;\n    BLAKE2b blake2b;\n    bytes verusKey = \"VerusDefaultHash\";\n    \n\n    constructor() public{\n        blake2b = new BLAKE2b();\n    }\n\n    function safeCheck(bytes32 _hashToCheck,uint _hashIndex,bytes32[] memory _branch) public returns(bytes memory){\n        \n        require(_hashIndex >= 0,\"Index cannot be less than 0\");\n        require(_branch.length > 0,\"Branch must be longer than 0\");\n        uint branchLength = _branch.length;\n        bytes memory hashInProgress;\n        uint64[8] memory blakeResult;\n        bytes memory joined;\n\n        hashInProgress = abi.encodePacked(_hashToCheck);\n\n       for(uint i = 0;i < branchLength; i++){\n            if(_hashIndex & 1 > 0){\n                require(_branch[i] != _hashToCheck,\"Value can be equal to node but never on the right\");\n                //join the two arrays and pass to blake2b\n                joined = abi.encodePacked(_branch[i],hashInProgress);\n                \n            } else {\n                joined = abi.encodePacked(hashInProgress,_branch[i]);\n            }\n            blakeResult = blake2b.blake2b(joined,verusKey,64);\n            hashInProgress = abi.encodePacked(blakeResult[0],blakeResult[1],blakeResult[2],blakeResult[3],\n                blakeResult[4],blakeResult[5],blakeResult[6],blakeResult[7]);\n            _hashIndex >>= 1;\n        }\n\n        return hashInProgress;\n\n    }\n\n    function testMMR(string memory testString) public returns(bytes memory){\n        uint64[8] memory blakeResult;\n        bytes memory testInput = bytes(testString);\n        verusKey = \"\";\n        blakeResult = blake2b.blake2b(testInput,verusKey,64);\n        bytes memory hashInProgress = abi.encodePacked(blakeResult[0],blakeResult[1],blakeResult[2],blakeResult[3],\n                blakeResult[4],blakeResult[5],blakeResult[6],blakeResult[7]);\n        return hashInProgress;\n    }\n\n}",
  "sourcePath": "/Users/james/Development/Ethereum-mmr/contracts/MMRProof.sol",
  "compiler": {
    "name": "solc",
    "version": "0.5.16+commit.9c3226ce.Emscripten.clang"
  },
  "schemaVersion": "3.2.2",
  "updatedAt": "2020-08-09T15:18:51.392Z",
  "networkType": "ethereum",
  "devdoc": {
    "methods": {}
  },
  "userdoc": {
    "methods": {}
  }
}