{
  "contractName": "MMRTest",
  "abi": [
    {
      "inputs": [],
      "payable": false,
      "stateMutability": "nonpayable",
      "type": "constructor"
    },
    {
      "constant": false,
      "inputs": [],
      "name": "testParameters",
      "outputs": [
        {
          "internalType": "uint64[8]",
          "name": "",
          "type": "uint64[8]"
        }
      ],
      "payable": false,
      "stateMutability": "nonpayable",
      "type": "function"
    }
  ],
  "bytecode": "0x608060405234801561001057600080fd5b5060405161001d9061007e565b604051809103906000f080158015610039573d6000803e3d6000fd5b506000806101000a81548173ffffffffffffffffffffffffffffffffffffffff021916908373ffffffffffffffffffffffffffffffffffffffff16021790555061008b565b612f05806104fb83390190565b6104618061009a6000396000f3fe608060405234801561001057600080fd5b506004361061002b5760003560e01c806336afd7b714610030575b600080fd5b61003861004e565b60405161004591906102f7565b60405180910390f35b610056610114565b61005e610114565b6000809054906101000a900473ffffffffffffffffffffffffffffffffffffffff1673ffffffffffffffffffffffffffffffffffffffff1663d299dac0604080518263ffffffff1660e01b81526004016100b89190610313565b61010060405180830381600087803b1580156100d357600080fd5b505af11580156100e7573d6000803e3d6000fd5b505050506040513d601f19601f8201168201806040525061010b91908101906101c0565b90508091505090565b604051806101000160405280600890602082028038833980820191505090505090565b600082601f83011261014857600080fd5b600861015b61015682610381565b610354565b9150818385602084028201111561017157600080fd5b60005b838110156101a1578161018788826101ab565b845260208401935060208301925050600181019050610174565b5050505092915050565b6000815190506101ba81610407565b92915050565b600061010082840312156101d357600080fd5b60006101e184828501610137565b91505092915050565b60006101f683836102e8565b60208301905092915050565b61020b816103ad565b61021581846103c5565b9250610220826103a3565b8060005b8381101561025157815161023887826101ea565b9650610243836103b8565b925050600181019050610224565b505050505050565b610262816103f5565b82525050565b6000610275602d836103d0565b91507f54686520717569636b2062726f776e20666f78206a756d706564206f7665722060008301527f746865206c617a7920646f672e000000000000000000000000000000000000006020830152604082019050919050565b60006102db6000836103d0565b9150600082019050919050565b6102f1816103e1565b82525050565b60006101008201905061030d6000830184610202565b92915050565b6000606082019050818103600083015261032c81610268565b9050818103602083015261033f816102ce565b905061034e6040830184610259565b92915050565b6000604051905081810181811067ffffffffffffffff8211171561037757600080fd5b8060405250919050565b600067ffffffffffffffff82111561039857600080fd5b602082029050919050565b6000819050919050565b600060089050919050565b6000602082019050919050565b600081905092915050565b600082825260208201905092915050565b600067ffffffffffffffff82169050919050565b6000610400826103e1565b9050919050565b610410816103e1565b811461041b57600080fd5b5056fea365627a7a7231582040131052e9c91baa04fb3230e930a35d4343364b2686ed9316ac72f7e28c6d7e6c6578706572696d656e74616cf564736f6c634300051000406080604052604051806101000160405280676a09e667f3bcc90867ffffffffffffffff16815260200167bb67ae8584caa73b67ffffffffffffffff168152602001673c6ef372fe94f82b67ffffffffffffffff16815260200167a54ff53a5f1d36f167ffffffffffffffff16815260200167510e527fade682d167ffffffffffffffff168152602001679b05688c2b3e6c1f67ffffffffffffffff168152602001671f83d9abfb41bd6b67ffffffffffffffff168152602001675be0cd19137e217967ffffffffffffffff168152506000906008620000e0929190620000f5565b50348015620000ee57600080fd5b50620001e5565b826008600301600490048101928215620001985791602002820160005b838211156200016057835183826101000a81548167ffffffffffffffff021916908367ffffffffffffffff160217905550926020019260080160208160070104928301926001030262000112565b8015620001965782816101000a81549067ffffffffffffffff021916905560080160208160070104928301926001030262000160565b505b509050620001a79190620001ab565b5090565b620001e291905b80821115620001de57600081816101000a81549067ffffffffffffffff021916905550600101620001b2565b5090565b90565b612d1080620001f56000396000f3fe608060405234801561001057600080fd5b50600436106100935760003560e01c8063d299dac011610066578063d299dac014610529578063df459019146106cb578063f23525ec1461076e578063fa2acd87146107c4578063fb72d24e1461087b57610093565b80631e09242314610098578063217311ac146103685780637ac0b1e3146103c8578063bf187478146104bf575b600080fd5b61032a600480360360a08110156100ae57600080fd5b81019080803590602001906401000000008111156100cb57600080fd5b8201836020820111156100dd57600080fd5b803590602001918460018302840111640100000000831117156100ff57600080fd5b91908080601f016020809104026020016040519081016040528093929190818152602001838380828437600081840152601f19601f8201169050808301925050505050505091929192908035906020019064010000000081111561016257600080fd5b82018360208201111561017457600080fd5b8035906020019184600183028401116401000000008311171561019657600080fd5b91908080601f016020809104026020016040519081016040528093929190818152602001838380828437600081840152601f19601f820116905080830192505050505050509192919290803590602001906401000000008111156101f957600080fd5b82018360208201111561020b57600080fd5b8035906020019184600183028401116401000000008311171561022d57600080fd5b91908080601f016020809104026020016040519081016040528093929190818152602001838380828437600081840152601f19601f8201169050808301925050505050505091929192908035906020019064010000000081111561029057600080fd5b8201836020820111156102a257600080fd5b803590602001918460018302840111640100000000831117156102c457600080fd5b91908080601f016020809104026020016040519081016040528093929190818152602001838380828437600081840152601f19601f820116905080830192505050505050509192919290803567ffffffffffffffff1690602001909291905050506108e5565b6040518082600860200280838360005b8381101561035557808201518184015260208101905061033a565b5050505090500191505060405180910390f35b61039e6004803603602081101561037e57600080fd5b81019080803567ffffffffffffffff16906020019092919050505061099b565b604051808267ffffffffffffffff1667ffffffffffffffff16815260200191505060405180910390f35b610481600480360360208110156103de57600080fd5b81019080803590602001906401000000008111156103fb57600080fd5b82018360208201111561040d57600080fd5b8035906020019184600183028401116401000000008311171561042f57600080fd5b91908080601f016020809104026020016040519081016040528093929190818152602001838380828437600081840152601f19601f820116905080830192505050505050509192919290505050610a8b565b6040518082600260200280838360005b838110156104ac578082015181840152602081019050610491565b5050505090500191505060405180910390f35b6104ff600480360360408110156104d557600080fd5b81019080803567ffffffffffffffff16906020019092919080359060200190929190505050610bcb565b604051808267ffffffffffffffff1667ffffffffffffffff16815260200191505060405180910390f35b61068d6004803603606081101561053f57600080fd5b810190808035906020019064010000000081111561055c57600080fd5b82018360208201111561056e57600080fd5b8035906020019184600183028401116401000000008311171561059057600080fd5b91908080601f016020809104026020016040519081016040528093929190818152602001838380828437600081840152601f19601f820116905080830192505050505050509192919290803590602001906401000000008111156105f357600080fd5b82018360208201111561060557600080fd5b8035906020019184600183028401116401000000008311171561062757600080fd5b91908080601f016020809104026020016040519081016040528093929190818152602001838380828437600081840152601f19601f820116905080830192505050505050509192919290803567ffffffffffffffff169060200190929190505050610bf7565b6040518082600860200280838360005b838110156106b857808201518184015260208101905061069d565b5050505090500191505060405180910390f35b61073060048036036101008110156106e257600080fd5b810190808061010001906008806020026040519081016040528092919082600860200280828437600081840152601f19601f8201169050808301925050505050509192919290505050610c33565b6040518082600260200280838360005b8381101561075b578082015181840152602081019050610740565b5050505090500191505060405180910390f35b61079a6004803603602081101561078457600080fd5b8101908080359060200190929190505050610cd7565b604051808267ffffffffffffffff1667ffffffffffffffff16815260200191505060405180910390f35b61087960048036036102c08110156107db57600080fd5b810190808061020001906010806020026040519081016040528092919082601060200280828437600081840152601f19601f820116905080830192505050505050919291929080359060200190929190803590602001909291908035906020019092919080359060200190929190803567ffffffffffffffff169060200190929190803567ffffffffffffffff169060200190929190505050610d08565b005b6108bb6004803603604081101561089157600080fd5b81019080803567ffffffffffffffff16906020019092919080359060200190929190505050610edc565b604051808267ffffffffffffffff1667ffffffffffffffff16815260200191505060405180910390f35b6108ed612b65565b6108f5612b88565b6108fd612b65565b61091a82858961090c8a610a8b565b6109158a610a8b565b610efd565b610924828961120b565b61092e828261131a565b7fde1a9fb355752f7765552010c12ee02e62eaa7b0502f3088e6b5398ce8686a38816040518082600860200280838360005b8381101561097b578082015181840152602081019050610960565b5050505090500191505060405180910390a1809250505095945050505050565b600067010000000000000060ff8316026501000000000061ff00841602630100000062ff000085160261010063ff00000086160261010067ffffffffffffffff1664ff00000000871667ffffffffffffffff16816109f557fe5b04630100000067ffffffffffffffff1665ff0000000000881667ffffffffffffffff1681610a1f57fe5b046501000000000067ffffffffffffffff1666ff000000000000891667ffffffffffffffff1681610a4c57fe5b0467010000000000000067ffffffffffffffff1667ff000000000000008a1667ffffffffffffffff1681610a7c57fe5b04181818181818189050919050565b610a93612bdf565b60008090505b8251811015610b3957610adb838281518110610ab157fe5b602001015160f81c60f81b60f81c60ff16600160088481610ace57fe5b0601600802604003610bcb565b8260088381610ae657fe5b0460028110610af157fe5b6020020151188260088381610b0257fe5b0460028110610b0d57fe5b602002019067ffffffffffffffff16908167ffffffffffffffff16815250508080600101915050610a99565b50610b5481600060028110610b4a57fe5b602002015161099b565b81600060028110610b6157fe5b602002019067ffffffffffffffff16908167ffffffffffffffff1681525050610b9a81600160028110610b9057fe5b602002015161099b565b81600160028110610ba757fe5b602002019067ffffffffffffffff16908167ffffffffffffffff1681525050919050565b6000680100000000000000008260020a8467ffffffffffffffff160281610bee57fe5b06905092915050565b610bff612b65565b610c2a84846040518060200160405280600081525060405180602001604052806000815250866108e5565b90509392505050565b610c3b612c01565b610c43612c01565b60008090505b6008811015610ccd5760048181610c5c57fe5b0660030360400260020a848260088110610c7257fe5b602002015167ffffffffffffffff160260001b8260048381610c9057fe5b0460028110610c9b57fe5b6020020151188260048381610cac57fe5b0460028110610cb757fe5b6020020181815250508080600101915050610c49565b5080915050919050565b60008160088110610ce457fe5b60049182820401919006600802915054906101000a900467ffffffffffffffff1681565b6000878760108110610d1657fe5b602002015190506000888760108110610d2b57fe5b602002015190506000898760108110610d4057fe5b6020020151905060008a8760108110610d5557fe5b60200201519050680100000000000000008684860108935068010000000000000000640100000000858318096401000000008583180418905068010000000000000000818308915068010000000000000000650100000000008385180963010000008385180418925068010000000000000000858486010893506801000000000000000066010000000000008583180962010000858318041890506801000000000000000081830891506801000000000000000060028385180967800000000000000083851804189250838b8b60108110610e2c57fe5b602002019067ffffffffffffffff16908167ffffffffffffffff1681525050828b8a60108110610e5857fe5b602002019067ffffffffffffffff16908167ffffffffffffffff1681525050818b8960108110610e8457fe5b602002019067ffffffffffffffff16908167ffffffffffffffff1681525050808b8860108110610eb057fe5b602002019067ffffffffffffffff16908167ffffffffffffffff16815250505050505050505050505050565b60008160020a8367ffffffffffffffff1681610ef457fe5b04905092915050565b60008467ffffffffffffffff161480610f20575060408467ffffffffffffffff16115b80610f2c575060408351115b15610f82576040517f08c379a000000000000000000000000000000000000000000000000000000000815260040180806020018281038252602e815260200180612cae602e913960400191505060405180910390fd5b60008090505b6008811015610ffa5760008160088110610f9e57fe5b600491828204019190066008029054906101000a900467ffffffffffffffff1686602001518260088110610fce57fe5b602002019067ffffffffffffffff16908167ffffffffffffffff16815250508080600101915050610f88565b508361100884516008610bcb565b6301010000876020015160006008811061101e57fe5b6020020151181818856020015160006008811061103757fe5b602002019067ffffffffffffffff16908167ffffffffffffffff16815250508160006002811061106357fe5b6020020151856020015160046008811061107957fe5b602002015118856020015160046008811061109057fe5b602002019067ffffffffffffffff16908167ffffffffffffffff1681525050816001600281106110bc57fe5b602002015185602001516005600881106110d257fe5b60200201511885602001516005600881106110e957fe5b602002019067ffffffffffffffff16908167ffffffffffffffff16815250508060006002811061111557fe5b6020020151856020015160066008811061112b57fe5b602002015118856020015160066008811061114257fe5b602002019067ffffffffffffffff16908167ffffffffffffffff16815250508060016002811061116e57fe5b6020020151856020015160076008811061118457fe5b602002015118856020015160076008811061119b57fe5b602002019067ffffffffffffffff16908167ffffffffffffffff16815250508367ffffffffffffffff16856080018181525050600083511115611204576111e2858461120b565b6080856060019067ffffffffffffffff16908167ffffffffffffffff16815250505b5050505050565b60008090505b8151811015611315576080836060015167ffffffffffffffff1614156112a257826060015167ffffffffffffffff1683604001818151019150906fffffffffffffffffffffffffffffffff1690816fffffffffffffffffffffffffffffffff168152505061128083600061146e565b6000836060019067ffffffffffffffff16908167ffffffffffffffff16815250505b600083606001805180919060010167ffffffffffffffff1667ffffffffffffffff1681525067ffffffffffffffff1690506112db612c23565b8460000151905060008484815181106112f057fe5b602001015160f81c60f81b60f81c905080838301535050508080600101915050611211565b505050565b816060015167ffffffffffffffff1682604001818151019150906fffffffffffffffffffffffffffffffff1690816fffffffffffffffffffffffffffffffff168152505061136982600161146e565b60008090505b600883608001518161137d57fe5b048110156113da576113a28360200151826008811061139857fe5b602002015161099b565b8282600881106113ae57fe5b602002019067ffffffffffffffff16908167ffffffffffffffff1681525050808060010191505061136f565b5060408260800151101561146a576114306114168360200151600885608001518161140157fe5b046008811061140c57fe5b602002015161099b565b600884608001518161142457fe5b06600802604003610edc565b81600884608001518161143f57fe5b046008811061144a57fe5b602002019067ffffffffffffffff16908167ffffffffffffffff16815250505b5050565b611476612c45565b61147e612c45565b60008090505b6008811015611535578460200151816008811061149d57fe5b60200201518382601081106114ae57fe5b602002019067ffffffffffffffff16908167ffffffffffffffff1681525050600081600881106114da57fe5b600491828204019190066008029054906101000a900467ffffffffffffffff1683600883016010811061150957fe5b602002019067ffffffffffffffff16908167ffffffffffffffff16815250508080600101915050611484565b506801000000000000000084604001516fffffffffffffffffffffffffffffffff168161155e57fe5b0682600c6010811061156c57fe5b60200201511882600c6010811061157f57fe5b602002019067ffffffffffffffff16908167ffffffffffffffff16815250506801000000000000000084604001516fffffffffffffffffffffffffffffffff16816115c657fe5b0482600d601081106115d457fe5b60200201511882600d601081106115e757fe5b602002019067ffffffffffffffff16908167ffffffffffffffff1681525050821561164c5781600e6010811061161957fe5b60200201511982600e6010811061162c57fe5b602002019067ffffffffffffffff16908167ffffffffffffffff16815250505b60008060008090505b60108110156116f65760006004828161166a57fe5b06905060009350600081141561169c5787600001516004838161168957fe5b046004811061169457fe5b602002015192505b67ffffffffffffffff8160030360400260020a84041693506116bd8461099b565b8583601081106116c957fe5b602002019067ffffffffffffffff16908167ffffffffffffffff1681525050508080600101915050611655565b5061172c84600060046008600c8860006010811061171057fe5b60200201518960016010811061172257fe5b6020020151610d08565b61176184600160056009600d8860026010811061174557fe5b60200201518960036010811061175757fe5b6020020151610d08565b6117968460026006600a600e8860046010811061177a57fe5b60200201518960056010811061178c57fe5b6020020151610d08565b6117cb8460036007600b600f886006601081106117af57fe5b6020020151896007601081106117c157fe5b6020020151610d08565b6118008460006005600a600f886008601081106117e457fe5b6020020151896009601081106117f657fe5b6020020151610d08565b6118358460016006600b600c88600a6010811061181957fe5b602002015189600b6010811061182b57fe5b6020020151610d08565b61186a84600260076008600d88600c6010811061184e57fe5b602002015189600d6010811061186057fe5b6020020151610d08565b61189f84600360046009600e88600e6010811061188357fe5b602002015189600f6010811061189557fe5b6020020151610d08565b6118d484600060046008600c88600e601081106118b857fe5b602002015189600a601081106118ca57fe5b6020020151610d08565b61190984600160056009600d886004601081106118ed57fe5b6020020151896008601081106118ff57fe5b6020020151610d08565b61193e8460026006600a600e8860096010811061192257fe5b602002015189600f6010811061193457fe5b6020020151610d08565b6119738460036007600b600f88600d6010811061195757fe5b60200201518960066010811061196957fe5b6020020151610d08565b6119a88460006005600a600f8860016010811061198c57fe5b602002015189600c6010811061199e57fe5b6020020151610d08565b6119dd8460016006600b600c886000601081106119c157fe5b6020020151896002601081106119d357fe5b6020020151610d08565b611a1284600260076008600d88600b601081106119f657fe5b602002015189600760108110611a0857fe5b6020020151610d08565b611a4784600360046009600e88600560108110611a2b57fe5b602002015189600360108110611a3d57fe5b6020020151610d08565b611a7c84600060046008600c88600b60108110611a6057fe5b602002015189600860108110611a7257fe5b6020020151610d08565b611ab184600160056009600d88600c60108110611a9557fe5b602002015189600060108110611aa757fe5b6020020151610d08565b611ae68460026006600a600e88600560108110611aca57fe5b602002015189600260108110611adc57fe5b6020020151610d08565b611b1b8460036007600b600f88600f60108110611aff57fe5b602002015189600d60108110611b1157fe5b6020020151610d08565b611b508460006005600a600f88600a60108110611b3457fe5b602002015189600e60108110611b4657fe5b6020020151610d08565b611b858460016006600b600c88600360108110611b6957fe5b602002015189600660108110611b7b57fe5b6020020151610d08565b611bba84600260076008600d88600760108110611b9e57fe5b602002015189600160108110611bb057fe5b6020020151610d08565b611bef84600360046009600e88600960108110611bd357fe5b602002015189600460108110611be557fe5b6020020151610d08565b611c2484600060046008600c88600760108110611c0857fe5b602002015189600960108110611c1a57fe5b6020020151610d08565b611c5984600160056009600d88600360108110611c3d57fe5b602002015189600160108110611c4f57fe5b6020020151610d08565b611c8e8460026006600a600e88600d60108110611c7257fe5b602002015189600c60108110611c8457fe5b6020020151610d08565b611cc38460036007600b600f88600b60108110611ca757fe5b602002015189600e60108110611cb957fe5b6020020151610d08565b611cf88460006005600a600f88600260108110611cdc57fe5b602002015189600660108110611cee57fe5b6020020151610d08565b611d2d8460016006600b600c88600560108110611d1157fe5b602002015189600a60108110611d2357fe5b6020020151610d08565b611d6284600260076008600d88600460108110611d4657fe5b602002015189600060108110611d5857fe5b6020020151610d08565b611d9784600360046009600e88600f60108110611d7b57fe5b602002015189600860108110611d8d57fe5b6020020151610d08565b611dcc84600060046008600c88600960108110611db057fe5b602002015189600060108110611dc257fe5b6020020151610d08565b611e0184600160056009600d88600560108110611de557fe5b602002015189600760108110611df757fe5b6020020151610d08565b611e368460026006600a600e88600260108110611e1a57fe5b602002015189600460108110611e2c57fe5b6020020151610d08565b611e6b8460036007600b600f88600a60108110611e4f57fe5b602002015189600f60108110611e6157fe5b6020020151610d08565b611ea08460006005600a600f88600e60108110611e8457fe5b602002015189600160108110611e9657fe5b6020020151610d08565b611ed58460016006600b600c88600b60108110611eb957fe5b602002015189600c60108110611ecb57fe5b6020020151610d08565b611f0a84600260076008600d88600660108110611eee57fe5b602002015189600860108110611f0057fe5b6020020151610d08565b611f3f84600360046009600e88600360108110611f2357fe5b602002015189600d60108110611f3557fe5b6020020151610d08565b611f7484600060046008600c88600260108110611f5857fe5b602002015189600c60108110611f6a57fe5b6020020151610d08565b611fa984600160056009600d88600660108110611f8d57fe5b602002015189600a60108110611f9f57fe5b6020020151610d08565b611fde8460026006600a600e88600060108110611fc257fe5b602002015189600b60108110611fd457fe5b6020020151610d08565b6120138460036007600b600f88600860108110611ff757fe5b60200201518960036010811061200957fe5b6020020151610d08565b6120488460006005600a600f8860046010811061202c57fe5b602002015189600d6010811061203e57fe5b6020020151610d08565b61207d8460016006600b600c8860076010811061206157fe5b60200201518960056010811061207357fe5b6020020151610d08565b6120b284600260076008600d88600f6010811061209657fe5b602002015189600e601081106120a857fe5b6020020151610d08565b6120e784600360046009600e886001601081106120cb57fe5b6020020151896009601081106120dd57fe5b6020020151610d08565b61211c84600060046008600c88600c6010811061210057fe5b60200201518960056010811061211257fe5b6020020151610d08565b61215184600160056009600d8860016010811061213557fe5b602002015189600f6010811061214757fe5b6020020151610d08565b6121868460026006600a600e88600e6010811061216a57fe5b602002015189600d6010811061217c57fe5b6020020151610d08565b6121bb8460036007600b600f8860046010811061219f57fe5b602002015189600a601081106121b157fe5b6020020151610d08565b6121f08460006005600a600f886000601081106121d457fe5b6020020151896007601081106121e657fe5b6020020151610d08565b6122258460016006600b600c8860066010811061220957fe5b60200201518960036010811061221b57fe5b6020020151610d08565b61225a84600260076008600d8860096010811061223e57fe5b60200201518960026010811061225057fe5b6020020151610d08565b61228f84600360046009600e8860086010811061227357fe5b602002015189600b6010811061228557fe5b6020020151610d08565b6122c484600060046008600c88600d601081106122a857fe5b602002015189600b601081106122ba57fe5b6020020151610d08565b6122f984600160056009600d886007601081106122dd57fe5b602002015189600e601081106122ef57fe5b6020020151610d08565b61232e8460026006600a600e88600c6010811061231257fe5b60200201518960016010811061232457fe5b6020020151610d08565b6123638460036007600b600f8860036010811061234757fe5b60200201518960096010811061235957fe5b6020020151610d08565b6123988460006005600a600f8860056010811061237c57fe5b60200201518960006010811061238e57fe5b6020020151610d08565b6123cd8460016006600b600c88600f601081106123b157fe5b6020020151896004601081106123c357fe5b6020020151610d08565b61240284600260076008600d886008601081106123e657fe5b6020020151896006601081106123f857fe5b6020020151610d08565b61243784600360046009600e8860026010811061241b57fe5b602002015189600a6010811061242d57fe5b6020020151610d08565b61246c84600060046008600c8860066010811061245057fe5b602002015189600f6010811061246257fe5b6020020151610d08565b6124a184600160056009600d88600e6010811061248557fe5b60200201518960096010811061249757fe5b6020020151610d08565b6124d68460026006600a600e88600b601081106124ba57fe5b6020020151896003601081106124cc57fe5b6020020151610d08565b61250b8460036007600b600f886000601081106124ef57fe5b60200201518960086010811061250157fe5b6020020151610d08565b6125408460006005600a600f88600c6010811061252457fe5b60200201518960026010811061253657fe5b6020020151610d08565b6125758460016006600b600c88600d6010811061255957fe5b60200201518960076010811061256b57fe5b6020020151610d08565b6125aa84600260076008600d8860016010811061258e57fe5b6020020151896004601081106125a057fe5b6020020151610d08565b6125df84600360046009600e88600a601081106125c357fe5b6020020151896005601081106125d557fe5b6020020151610d08565b61261484600060046008600c88600a601081106125f857fe5b60200201518960026010811061260a57fe5b6020020151610d08565b61264984600160056009600d8860086010811061262d57fe5b60200201518960046010811061263f57fe5b6020020151610d08565b61267e8460026006600a600e8860076010811061266257fe5b60200201518960066010811061267457fe5b6020020151610d08565b6126b38460036007600b600f8860016010811061269757fe5b6020020151896005601081106126a957fe5b6020020151610d08565b6126e88460006005600a600f88600f601081106126cc57fe5b602002015189600b601081106126de57fe5b6020020151610d08565b61271d8460016006600b600c8860096010811061270157fe5b602002015189600e6010811061271357fe5b6020020151610d08565b61275284600260076008600d8860036010811061273657fe5b602002015189600c6010811061274857fe5b6020020151610d08565b61278784600360046009600e88600d6010811061276b57fe5b60200201518960006010811061277d57fe5b6020020151610d08565b6127bc84600060046008600c886000601081106127a057fe5b6020020151896001601081106127b257fe5b6020020151610d08565b6127f184600160056009600d886002601081106127d557fe5b6020020151896003601081106127e757fe5b6020020151610d08565b6128268460026006600a600e8860046010811061280a57fe5b60200201518960056010811061281c57fe5b6020020151610d08565b61285b8460036007600b600f8860066010811061283f57fe5b60200201518960076010811061285157fe5b6020020151610d08565b6128908460006005600a600f8860086010811061287457fe5b60200201518960096010811061288657fe5b6020020151610d08565b6128c58460016006600b600c88600a601081106128a957fe5b602002015189600b601081106128bb57fe5b6020020151610d08565b6128fa84600260076008600d88600c601081106128de57fe5b602002015189600d601081106128f057fe5b6020020151610d08565b61292f84600360046009600e88600e6010811061291357fe5b602002015189600f6010811061292557fe5b6020020151610d08565b61296484600060046008600c88600e6010811061294857fe5b602002015189600a6010811061295a57fe5b6020020151610d08565b61299984600160056009600d8860046010811061297d57fe5b60200201518960086010811061298f57fe5b6020020151610d08565b6129ce8460026006600a600e886009601081106129b257fe5b602002015189600f601081106129c457fe5b6020020151610d08565b612a038460036007600b600f88600d601081106129e757fe5b6020020151896006601081106129f957fe5b6020020151610d08565b612a388460006005600a600f88600160108110612a1c57fe5b602002015189600c60108110612a2e57fe5b6020020151610d08565b612a6d8460016006600b600c88600060108110612a5157fe5b602002015189600260108110612a6357fe5b6020020151610d08565b612aa284600260076008600d88600b60108110612a8657fe5b602002015189600760108110612a9857fe5b6020020151610d08565b612ad784600360046009600e88600560108110612abb57fe5b602002015189600360108110612acd57fe5b6020020151610d08565b60008090505b6008811015612b5c57846008820160108110612af557fe5b6020020151858260108110612b0657fe5b602002015188602001518360088110612b1b57fe5b6020020151181887602001518260088110612b3257fe5b602002019067ffffffffffffffff16908167ffffffffffffffff1681525050806001019050612add565b50505050505050565b604051806101000160405280600890602082028038833980820191505090505090565b6040518060a00160405280612b9b612c68565b8152602001612ba8612c8a565b815260200160006fffffffffffffffffffffffffffffffff168152602001600067ffffffffffffffff168152602001600081525090565b6040518060400160405280600290602082028038833980820191505090505090565b6040518060400160405280600290602082028038833980820191505090505090565b6040518060800160405280600490602082028038833980820191505090505090565b604051806102000160405280601090602082028038833980820191505090505090565b6040518060800160405280600490602082028038833980820191505090505090565b60405180610100016040528060089060208202803883398082019150509050509056fe4f75746c656e206d7573742062652067726561746572207468616e203020616e64206c657373207468616e203634a265627a7a72315820bb4b829738f2db4ffca3afdb44dd6364dccbdaca4d6a4bb07428e7bdb8d848d964736f6c63430005100032",
  "source": "    \n// SPDX-License-Identifier: MIT\n// Bridge between ethereum and verus\n\npragma solidity >=0.5.16 <0.7.1;\nimport \"./BLAKE2B/BLAKE2b.sol\";\npragma experimental ABIEncoderV2;\ncontract MMRTest {\n    \n    BLAKE2b blake;\n\n    constructor() public{\n        blake = new BLAKE2b();\n    }\n    function testParameters() public returns(uint64[8] memory){\n        \n        //bytes memory hashInProgress = abi.encodePacked(hashToCheck);\n        //bytes memory test = \"0x32\";\n        //uint64[8] memory testOutput = blake.blake2b(\"abc\",\"\",64);\n        uint64[8] memory result = blake.blake2b(\"The quick brown fox jumped over the lazy dog.\", \"\", 64);\n        //return testOutput;\n        return result;\n    }\n/*\n    function testFinalHash() public{\n    \n        uint64[8] memory result = blake.blake2b(\"abc\", \"\", 64);\n        uint64[8] memory trueHash = [0xba80a53f981c4d0d,0x6a2797b69f12f6e9,\n                                    0x4c212f14685ac4b7,0x4b12bb6fdbffa2d1,\n                                    0x7d87c5392aab792d,0xc252d5de4533cc95,\n                                    0x18d38aa8dbf1925a,0xb92386edd4009923];\n\n        require(result[0] == trueHash[0],\"hash did not match\");\n\n    }*/\n}   ",
  "sourcePath": "/Users/james/Development/Ethereum-mmr/contracts/MMRTest.sol",
  "compiler": {
    "name": "solc",
    "version": "0.5.16+commit.9c3226ce.Emscripten.clang"
  },
  "schemaVersion": "3.2.2",
  "updatedAt": "2020-08-09T15:18:51.426Z",
  "networkType": "ethereum",
  "devdoc": {
    "methods": {}
  },
  "userdoc": {
    "methods": {}
  }
}